{
  "contractName": "dataAPI",
  "abi": [
    {
      "inputs": [
        {
          "internalType": "string",
          "name": "user",
          "type": "string"
        },
        {
          "internalType": "string",
          "name": "cid1",
          "type": "string"
        },
        {
          "internalType": "string",
          "name": "fileName",
          "type": "string"
        }
      ],
      "name": "addCID",
      "outputs": [],
      "stateMutability": "nonpayable",
      "type": "function"
    },
    {
      "inputs": [
        {
          "internalType": "string",
          "name": "user",
          "type": "string"
        }
      ],
      "name": "get",
      "outputs": [
        {
          "components": [
            {
              "internalType": "string",
              "name": "cid",
              "type": "string"
            },
            {
              "internalType": "string",
              "name": "fileName",
              "type": "string"
            }
          ],
          "internalType": "struct dataAPI.userData[]",
          "name": "",
          "type": "tuple[]"
        }
      ],
      "stateMutability": "view",
      "type": "function",
      "constant": true
    }
  ],
  "bytecode": "0x608060405234801561001057600080fd5b50610852806100206000396000f3fe608060405234801561001057600080fd5b50600436106100365760003560e01c8063693ec85e1461003b578063ba10b5761461006b575b600080fd5b610055600480360381019061005091906104c8565b610087565b604051610062919061069f565b60405180910390f35b610085600480360381019061008091906106c1565b610228565b005b606060008260405161009991906107a4565b9081526020016040518091039020805480602002602001604051908101604052809291908181526020016000905b8282101561021d57838290600052602060002090600202016040518060400160405290816000820180546100fa906107ea565b80601f0160208091040260200160405190810160405280929190818152602001828054610126906107ea565b80156101735780601f1061014857610100808354040283529160200191610173565b820191906000526020600020905b81548152906001019060200180831161015657829003601f168201915b5050505050815260200160018201805461018c906107ea565b80601f01602080910402602001604051908101604052809291908181526020018280546101b8906107ea565b80156102055780601f106101da57610100808354040283529160200191610205565b820191906000526020600020905b8154815290600101906020018083116101e857829003601f168201915b505050505081525050815260200190600101906100c7565b505050509050919050565b6000604051806040016040528084815260200183815250905060008460405161025191906107a4565b908152602001604051809103902081908060018154018082558091505060019003906000526020600020906002020160009091909190915060008201518160000190805190602001906102a59291906102cb565b5060208201518160010190805190602001906102c29291906102cb565b50505050505050565b8280546102d7906107ea565b90600052602060002090601f0160209004810192826102f95760008555610340565b82601f1061031257805160ff1916838001178555610340565b82800160010185558215610340579182015b8281111561033f578251825591602001919060010190610324565b5b50905061034d9190610351565b5090565b5b8082111561036a576000816000905550600101610352565b5090565b6000604051905090565b600080fd5b600080fd5b600080fd5b600080fd5b6000601f19601f8301169050919050565b7f4e487b7100000000000000000000000000000000000000000000000000000000600052604160045260246000fd5b6103d58261038c565b810181811067ffffffffffffffff821117156103f4576103f361039d565b5b80604052505050565b600061040761036e565b905061041382826103cc565b919050565b600067ffffffffffffffff8211156104335761043261039d565b5b61043c8261038c565b9050602081019050919050565b82818337600083830152505050565b600061046b61046684610418565b6103fd565b90508281526020810184848401111561048757610486610387565b5b610492848285610449565b509392505050565b600082601f8301126104af576104ae610382565b5b81356104bf848260208601610458565b91505092915050565b6000602082840312156104de576104dd610378565b5b600082013567ffffffffffffffff8111156104fc576104fb61037d565b5b6105088482850161049a565b91505092915050565b600081519050919050565b600082825260208201905092915050565b6000819050602082019050919050565b600081519050919050565b600082825260208201905092915050565b60005b8381101561057757808201518184015260208101905061055c565b83811115610586576000848401525b50505050565b60006105978261053d565b6105a18185610548565b93506105b1818560208601610559565b6105ba8161038c565b840191505092915050565b600060408301600083015184820360008601526105e2828261058c565b915050602083015184820360208601526105fc828261058c565b9150508091505092915050565b600061061583836105c5565b905092915050565b6000602082019050919050565b600061063582610511565b61063f818561051c565b9350836020820285016106518561052d565b8060005b8581101561068d578484038952815161066e8582610609565b94506106798361061d565b925060208a01995050600181019050610655565b50829750879550505050505092915050565b600060208201905081810360008301526106b9818461062a565b905092915050565b6000806000606084860312156106da576106d9610378565b5b600084013567ffffffffffffffff8111156106f8576106f761037d565b5b6107048682870161049a565b935050602084013567ffffffffffffffff8111156107255761072461037d565b5b6107318682870161049a565b925050604084013567ffffffffffffffff8111156107525761075161037d565b5b61075e8682870161049a565b9150509250925092565b600081905092915050565b600061077e8261053d565b6107888185610768565b9350610798818560208601610559565b80840191505092915050565b60006107b08284610773565b915081905092915050565b7f4e487b7100000000000000000000000000000000000000000000000000000000600052602260045260246000fd5b6000600282049050600182168061080257607f821691505b60208210811415610816576108156107bb565b5b5091905056fea264697066735822122008ee1b8d4adc1dba9951ee5d0f7e4223c0e6f60921eb8e168523e1a0cff7669464736f6c634300080a0033",
  "immutableReferences": {},
  "source": "// SPDX-License-Identifier: MIT\n\npragma solidity ^0.8.0;\n\ncontract dataAPI {\n    //Defining structure \n    struct userData {\n        string cid;\n        string fileName;\n    }\n    mapping (string => userData[]) userMap;    \n    string[] private arr;\n    function addCID(string memory user,string memory cid1,string memory fileName) public {\n\n\n        userData memory u = userData({cid:cid1,fileName:fileName});\n        userMap[user].push(u);\n\n        // u.cid=cid1;\n        // u.fileName=fileName;\n        // userMap[user].push(u);\n    }\n    function get(string memory user) public view returns (userData [] memory){\n        return userMap[user];\n    } \n}",
  "sourcePath": "/home/pain/Documents/ideate/dbb/dbb-api/contracts/dataAPI.sol",
  "compiler": {
    "name": "solc",
    "version": "0.8.10+commit.fc410830.Emscripten.clang"
  },
  "schemaVersion": "3.4.10",
  "updatedAt": "2022-10-05T10:37:55.994Z",
  "networkType": "ethereum",
  "devdoc": {
    "kind": "dev",
    "methods": {},
    "version": 1
  },
  "userdoc": {
    "kind": "user",
    "methods": {},
    "version": 1
  }
}